:020000041000EA
:10000000002008205D0100101301001015010010F0
:100010001101001011010010110100101101001058
:100020001101001011010010110100101701001042
:100030001101001011010010190100101B01001026
:100040001D0100101D0100101D0100101D010010F8
:100050001D0100101D0100101D0100101D010010E8
:100060001D0100101D0100101D0100101D010010D8
:100070001D0100101D0100101D0100101D010010C8
:100080001D0100101D0100101D0100101D010010B8
:100090001D0100101D0100101D0100101D010010A8
:1000A0001D0100101D0100101D0100101D01001098
:1000B0001D0100101D0100101D0100101D01001088
:1000C0001D0100101D0100101D0100101D01001078
:1000D0001D0100101D0100101D0100101D01001068
:1000E0001D0100101D0100101D0100101D01001058
:1000F0001D0100101D0100101D0100101D01001048
:100100001D0100101D0100101D0100101D01001037
:1001100000BE00BE00BE00BE00BE00BEEFF3058004
:10012000103800BEF2EB887158F3061074F3061015
:10013000A801001090A31AE7D3DEFFFF42012110AF
:10014000FF01000094020700793512AB4FF0000068
:100150002049086006C881F3088810474FF05040D6
:10016000006810B14FF00000F2E70FA40ECC002998
:1001700002D000F015F8F9E71749184A002000E00E
:1001800001C19142FCD1002080F30A8814498847BC
:10019000144988471449884700BEFDE701C901C2D8
:1001A0009A42FBD3704700BF74F306101001002081
:1001B00068110020CC030710000008200000082070
:1001C000CC030710001008200010082000000000D9
:1001D0007047000008ED00E068110020DC8C002072
:1001E0009904011001AE00105D040110F8B500BFC4
:1001F0000348044B834202D0034B03B118477047B6
:10020000681100206811002000000000064B07491B
:10021000C91A891048BF0131491003D0044B0BB1F2
:1002200001481847704700BF68110020681100207E
:100230000000000010B5064C237843B9FFF7D8FF43
:10024000044B13B10448AFF300800123237010BDA9
:10025000E812002000000000786E011008B5044B81
:100260001BB104490448AFF30080BDE80840CDE766
:1002700000000000EC120020786E0110F0B544F68A
:100280002066124ADFF850C0114DDFF850E0936944
:10029000DB0619D49369D906FCD41468DCF8001085
:1002A000DEF800000131A5FB01739B0B06FB131365
:1002B0009842ECD0DCF800100648E4B24454CCF884
:1002C00000309369DB06E5D5F0BD00BF0080074034
:1002D0005917B7D1A83E0020783D0020CC8C0020D3
:1002E00090ED007AD1ED007AB4EEE77AF1EE10FAF3
:1002F00004D4CCBF4FF0FF3000207047012070477E
:1003000043684A68934209BF0B68981A0068C01A8C
:10031000704700BF00680B68C01A7047036908691E
:10032000C01A704700680B68C01A704700680B68F5
:10033000C01A70472DE9F04F2DED068B054683B0AE
:100340003C48019110F066FA3B480EF0D9FCDFF80A
:1003500014B10646394810F05DFADBF800300BB3F3
:10036000374C44F204230198364A03FB00FA364F17
:10037000311F5244574412F8013FE35CBA4203EB89
:10038000032003EB002343F07F4341F8043FF2D105
:1003900082230020C5E90033AE6003B0BDEC068BBC
:1003A000BDE8F08FDFF8C0A09FED288ADFED288A36
:1003B0009FED28AADFED289A9FED289ADFF8AC90F0
:1003C0000AF101040AF58078CAF1000713E0DFEDB5
:1003D000246AB7EE007A67EEA67AC7FEC77AC7FE30
:1003E000897A67EE887A17EE900A16F005FD0AF80A
:1003F000010FC2451AD007EB0A0307EE103AB8EE18
:10040000C77AC7EE087AF4EEE87AF1EE10FADED990
:1004100017EE900A49460EF017FAF0EE697A06EEEA
:10042000900AB7EE007AE6EE8A7AD6E70123CBF897
:10043000003096E7786E011010080100846E0110FC
:10044000843D00206385011067C7011000007F43D1
:100450001C2E4D3B3D0A873FAE4761BD00000000AA
:1004600052B84E41843E0020833D00205555D53E74
:1004700002680B68B2F90020B3F900309A4207D045
:10048000CCBF01200020B4BF01230023C01A704755
:10049000B0F90420B1F904309A42ACBF0020012029
:1004A0009A42D4BF4042C0F10100704730B5B1F963
:1004B00000C0B0F900E00CEB4C030EEB4E02B0F9BB
:1004C0000250B1F902400EEBC2620CEBC3630EEBBB
:1004D00082020CEB83032A4423449A4201D1E6456D
:1004E00007D0CCBF01200020B4BF01230023C01AD5
:1004F00030BDA542F5D190ED017AD1ED017AB4EE8F
:10050000677AF1EE10FA03D1007A0B7AC01A30BD87
:10051000B4EEE77AF1EE10FACCBF012000204CBF18
:1005200001230023C01A30BD08B5054B2E221B68DD
:100530000121DB68034811F047FF01200FF08EFF17
:10054000B00A0020906E011008B5054B1E221B68F2
:100550000121DB68034811F037FF01200FF07EFF17
:10056000B00A0020C06E011008B5054B22221B689E
:100570000121DB68034811F027FF01200FF06EFF17
:10058000B00A0020E06E01102DE9F04FD0E90332EF
:10059000002A044683B0184640F3A4804FF0000BB5
:1005A00053F82BA0BAF1000F78D0DAF80C30002BFA
:1005B00074DD0027DAF8083001943A4653F8273002
:1005C00059464F4810F0A8F9DAF808304FEA870882
:1005D00053F8276003EB0802002E56D04948B16952
:1005E00010F09AF9B369002B5ED0F568002D08BFB2
:1005F0003546D5E90123297F434810F08DF92C7F3A
:10060000002C3ED1012329462B776A683F4810F021
:1006100083F96B68002B26DDA1463D4C0DE02B686D
:10062000204603EBC90253F83910526810F074F9F0
:100630006B6809F10109994515DAAB69002BEED019
:10064000EA682046D2E90013013BA3EB090301EB62
:10065000C302526851F8331010F05EF96B6809F16B
:1006600001099945E9DB0A2010F092F828680EF09C
:1006700081FBAE4202D030460EF07CFB28460EF0E5
:1006800079FBDAF8083003EB08020020DAF80C10E6
:1006900001378F42106090DB019C22690BF1010B46
:1006A000934503DAE3687BE73546A2E7002AD8BF23
:1006B000E06817DD0025A846164F2946384610F099
:1006C0002BF9E06850F82560A6B1B0680EF052FB37
:1006D00030460EF04FFBD4E9030340F82580013586
:1006E0009D42EADB0EF046FB204603B0BDE8F04F2A
:1006F0000EF040BB236901359D42DEDBF2E700BF0F
:10070000046F0110306F0110406F01107C6F0110F9
:10071000A86F0110B46F01102DE9F04F2DED028B81
:100720005700013707FB07F70546781C9FB080008C
:100730001446884608EE103AD1E900B30A930EF049
:10074000DFFA00260590A0F1040907EE906AF8EEA2
:10075000E77A67EE887A17EE900A16F051FB0CF0F4
:10076000D5F90CF011FDB74249F8040F06F1010666
:10077000EBD10A9F04210BFB07F630460EF0D2FAAC
:100780000121824630460EF0CDFA082F064640F38E
:100790001881201DC4F103030BFB03FE179300FB1C
:1007A0000BF30E93C4EBC4734FEA43090AEB8B03BC
:1007B0000C330BEB4B0C19930EEB0403221FA3EB32
:1007C0000C03ABEB0404169333191A930A9B15928E
:1007D0009A18013B18930BF1FF3306936346089078
:1007E0001492CDF84CA01C961B901D95089A0A995E
:1007F0008A421899B8BF11464A4422EAE27202922C
:100800008A1A0132BBF1080F0991039240F3C980A3
:10081000029908980BFB01F10C911399CDE9103E58
:1008200001F10C0C16990CEB830C04311944009166
:1008300009F1FF3101440D911999179F01EB830ACA
:1008400015991B9A5944049109EB0E010F910999CE
:10085000CDF848904E1C1A99079619440B916146A1
:100860003FE00D9E002EC0F28A800F9ED8F80890BF
:1008700009EB060E96441EF801EC0A9EBEF1000F2D
:1008800018BF04460898B0427FDB5A4575DA009BD2
:1008900019F80330002B4DD02046013C089B0A9EDE
:1008A000B34207DAD8F808300E9E33449B5C0BB194
:1008B00004460130039BACEB050505FB0335059BA6
:1008C000CAF8000053F825309C4203DB4FF00100CA
:1008D0000B9B9854009B013201330093049B93427D
:1008E0005BD0069D5AF8040B5A45ACBFAC46944603
:1008F0000197002807F101074C6827EAE77551F8CE
:1009000004EB19DD002C17DDBEF1000F14DD019B97
:100910002044A0EB0E00002B00F1FF34A1DA5A4571
:100920002BDA0D9B002B05DBD8F8083000981B5CF8
:10093000002BB1D1601CB1E7029B0998834251DCC6
:1009400099460024DDF830E0079E019765450DDCEF
:10095000D8F8087005EB0E033B4401376744774431
:1009600013F8010B00B10134BB42F9D109F10109BF
:10097000B145DE44EAD1019F0796601C9AE7089EC4
:100980000A9B9E4296DAD8F80890019B0E984B4439
:100990001B5C002BC3D0013CC1E7DDF84890DDE9CA
:1009A000103E0E99089A59440E91149901329142C1
:1009B0000892DE445B447FF419AFDDE91C65DDF885
:1009C0004CA005980EF0D6F950460EF0D3F9284603
:1009D0000A9BC5F800B0C5E901361FB0BDEC028B1B
:1009E000BDE8F08F0120002464E700BF2DE9F04747
:1009F0008CB00DF10808254B254E4046F61A254FC0
:100A000010F018FD244D254B254C0020A5EB030AC2
:100A1000DDF824903C1BDF1B10F0B0FCA5EB0805B3
:100A20000DF1070840452CBF4FF00008A8EB000867
:100A30001C480FF0EFFE31461B480FF06DFF2146BA
:100A40001A480FF069FF494619480FF065FF39460B
:100A500018480FF061FF294617480FF05DFF514617
:100A600016480FF059FF414615480FF055FF15483D
:100A70000FF0D0FEA1194944294413480FF04CFF50
:100A80000FF074FE0CB0BDE8F08700BF100100202D
:100A900068110020DC8C00200020082000000820C5
:100AA000681100203070011050700110707001103A
:100AB00090700110B0700110D0700110F070011032
:100AC00010710110307101103871011001230022E2
:100AD0004FF4E13110B514480FF0FCFF0D24532101
:100AE0000022124B1248B3F900C00F4B82B98C455B
:100AF00015D09A699206FCD4196010F8012BA2F166
:100B00000D02B2FA82F2017852090029EED110BD2D
:100B10009A699206F0D59A699206F9D4ECE79A6937
:100B20009206FCD41C60E4E700000740D08C002053
:100B300058710110F8B54FF496414C480BF0FEF98E
:100B4000022104200AF080FB532600220D24484D88
:100B50004849B5F90000484B002A62D1B04267D03D
:100B60009A699706FCD41E6011F8012BA2F10D02C0
:100B7000B2FA82F20E785209002EEDD153240D27DD
:100B8000052002210AF060FB3C4A3B4BB5F900000E
:100B9000002E52D1A04257D099698906FCD41C601E
:100BA00012F8016BA6F10D06B6FA86F614787609EE
:100BB000002CEDD10121052022460AF063FB0D2611
:100BC00045232F482C49B5F90050002C41D19D42B6
:100BD00046D08A699206FCD40B6010F8014BA4F150
:100BE0000D04B4FA84F403786409002BEDD11F4C92
:100BF0000122082120460BF023FA012120460BF0A8
:100C000057FA22201F490AF0EBFB012122200AF0AB
:100C1000D1FB5023A363636B1B4A03F03803536378
:100C2000F8BD9A6997069ED59A699706F9D49AE70E
:100C30009A699206FCD41C6092E799698906AED540
:100C400099698906F9D4AAE799698E06FCD41F60D0
:100C5000A2E78A699706BFD58A699706F9D4BBE7E8
:100C60008A699406FCD40E60B3E700BF0080074099
:100C7000D08C0020687101100000074088710110BD
:100C8000A87101107D020010009007402DE9F04787
:100C90002DED028B0B4682B0804644F62062002187
:100CA0008F4808EE103A0FF06DFF00224FF0F50E5E
:100CB00053214FF00D0C8B4E8B4F32603A6098F8F9
:100CC00002908DF800E08DF807E098F801E08DF8CB
:100CD00003908DF802E08EEA090E98F80090834D9B
:100CE00089EA0E0E8DF8019098F8039098F8048028
:100CF00089EA0E0E88EA0E0E7D4CB5F900007D4B98
:100D00008DF804908DF805808DF806E0002A40F0FB
:100D10009C80884200F0A1809A699206FCD41960F8
:100D200014F8012BA2F10D02B2FA82F221785209D5
:100D30000029EBD10A2800F0B6806E498B699A062B
:100D4000FCD40A236C4AB5F902C00DF1FF300DF155
:100D5000070E0B6010F8014FA44500F09D809369C9
:100D600013F02009FBD170451460F3D142F21072E8
:100D7000494662480FF006FF41F288300BF002F856
:100D800011F0A4FAB8EEC88AB5EEC08AF1EE10FAF6
:100D900080464C462CDDDFED5A8ADFF844A1DFF8AF
:100DA000689101E0082C23D032683B6853499A428D
:100DB0000DD044F620603B681AF803303A680B55B2
:100DC0000132A9FB02139B0B00FB13233B6011F0C4
:100DD0007DFAA0EB080007EE900AF8EE677A87EE3E
:100DE000A87AB4EEC78AF1EE10FA04F10104D9DC56
:100DF000522100220D26B5F9005042483D4B002AF1
:100E000031D18D4236D09A699706FCD4196010F81A
:100E1000012BA2F10D02B2FA82F2017852090029E7
:100E2000EDD10A2D31D0334A93699B06FCD40A23B5
:100E3000082C136023D1314B1A78F52A3AD00120BF
:100E400002B0BDEC028BBDE8F0879A6992067FF58F
:100E500066AF9A699206F8D461E79A699206FCD463
:100E6000C3F800C058E79A699706CFD59A699706E4
:100E7000F9D4CBE79A699206FCD41E60C3E7082038
:100E800002B0BDEC028BBDE8F0871A4A936999065F
:100E9000FCD40D231360C6E717498B699B06FCD46D
:100EA0000D230B605BE7134A93699906FCD40D236D
:100EB000136042E7DA79F52AC1D159789DF801200B
:100EC0008A42BCD19878D97842401C794A405979F5
:100ED000987982EA04034B40C01A18BF0120AFE79B
:100EE000A83E0020783D0020CC8C0020D08C002033
:100EF000CC6F0110000007400080074068160020FA
:100F00000000C842D47101105917B7D12DE9F04F34
:100F1000CE18013ED51896FBF3F6013D95FBF3F58F
:100F2000731C4FEA830887B06C1C07464046924604
:100F30008946019300940DF0E3FEA4000290204640
:100F40000DF0DEFE002D8346029A0BDB0021A4F19A
:100F5000040C8444031F91FBF5F043F8040F634530
:100F60005144F8D1002E0BDB0021A8F1040C94446D
:100F7000131F91FBF6F043F8040F9C454944F8D148
:100F8000B31C029308F10400AB1C059203930DF00F
:100F9000B7FE0490201D0DF0B3FEDDE90432002100
:100FA0008D42016013DD59468446043C04EB0B0E70
:100FB000DBF800400495254651F8044F254405EB25
:100FC000D5756D108E454CF8045FF4D1049D0099E1
:100FD00040F821A000218E42196010DD94469E4603
:100FE000A8F104081468904421465CF8044F214499
:100FF00001EBD1714910C4454EF8041FF4D1786358
:101000003846C7E9062B029A0099BA62039AC7E9E3
:1010100001A6FA62019AFD60C7E9082143F822900F
:10102000C7F800903A6179613B6307B0BDE8F08F83
:101030002DE9F04F4B6A93B0956816460C46D1F8EF
:1010400020B008930746FFF7D1FC4FF4FA500AF09E
:1010500099FE089B042103FB0BF005FB00F00DF04B
:1010600061FE80460990FFF7C1FC4FF4FA500AF088
:1010700089FEDFF8F0E00DF1280CBEE80F00ACE8C7
:101080000F009EE80F00D4F824A08CE80F00BAF1FE
:10109000000F5BDD216A002958DD4FF0000905FBD8
:1010A0000BF3CE46CDE906A33B46A8F1040012AAF5
:1010B000059002950391CC460027C846C1460AA870
:1010C0000193016879182DD445681EEB050529D4D4
:1010D000A3688B4226DDE368AB4223DDD6F80880A7
:1010E000B8F1000F1EDD3368CDF810E003FB0511E9
:1010F00008FB01F1F568059B8844DDF804E005EB89
:10110000880A05EB810103EB8C0851F8043B58F881
:10111000045F51451D44C8F80050F6D1CDF804E0F5
:10112000DDF810E008308242CBD1029901378C44BF
:101130000399C8468F42019BC0D107990EF1010E59
:10114000894406998E45B6D11F46029D3846089BB4
:10115000C7F800B0C7E90135099BFB6013B0BDE8D3
:10116000F08F00BF0CF0061084B02DE9F04F1F4641
:101170008FB00546DDE9296919A880E80E000A93B9
:101180001C9B042107FB03F00893279C0DF0CAFD6C
:10119000089B0990002B7CDD002F7ADD06FB04F311
:1011A00006F1FF3A50460C930BF0CAFF02460B467D
:1011B000002041490BF01CFF0024CDE9020122462A
:1011C0002146A446B300019309EB86030B930D95CA
:1011D00027460A9B0B981A44099BCDE9044103EB6F
:1011E0000C084FEA820CCDE9062C00EB840503EBDA
:1011F000820B002E59DD09EB87042346002053F8AB
:10120000042B9D421044FAD10BF09AFF28A3D3E996
:1012100000230BF0C7FE0BF0FDFB0BF0B5FF59F8F8
:1012200027300022984205DA08E054F8041F0B44E6
:10123000984203DB01329642F7D1524655F8041C1E
:10124000534688420ADB84462C1F04E054F8040D00
:1012500001448C4502DB013BF8D20023981A0BF0C5
:101260006FFFDDE902230BF09DFE0BF05BFF019B9E
:1012700048F8040BD8451D443744BAD1DDE9044190
:10128000DDE9062C0C9B01311C44089B99429FD13F
:101290000D9D28460A9B2B60089B6B60099BAB60E9
:1012A0000FB0BDE8F04F04B070475246D5E700BF1D
:1012B0007B14AE47E17AB43F0000F03F000000002D
:1012C0002DE9F0472DED028B01FB02F884B04FEAC7
:1012D000880A04AC0746504604E90E000D461C4639
:1012E00016460DF00DFD81465246214610F044FD94
:1012F000042241464846424B0FF096FCDDE90E328F
:1013000002FB03F3DDE9102101FB02F293FBF2F390
:101310003C489FED3D8A90FBF3F04045A8BF404616
:101320000BF00EFF32A3D3E900230BF03BFE0BF0D2
:1013300071FB0BF029FF0128B8BF01204B46824604
:1013400009EB8002F3EC017A934238EE278AF9D157
:1013500048460DF00FFD07EE90AAF8EEE77AC8EECA
:10136000277A17EE900A15F04BFD23A3D3E900234B
:101370000BF018FE0BF0D6FE012108EE100A4046D5
:101380000DF0D0FC002E804625DD002D23DD4FF032
:10139000000C04EB8501E6460124C5EB45794FEAD4
:1013A000C9094FEA850AA1EB0A00034608EB0C02C3
:1013B000F3EC017AB4EEE78AF1EE10FAC8BF1470CC
:1013C0008B4202F10102F3D10EF1010EB645A0EB02
:1013D0000901AC44E7D13846C7E90056C7F8088090
:1013E00004B0BDEC028BBDE8F08700BFAFF3008016
:1013F0005C8FC2F5285CDF3FC3F5285C8FC2D53F08
:10140000E1020010789202000000000000000000DD
:1014100084B02DE9F04FABB035AC84E80E006C46DB
:101420000BAE43AB18900FCB86E80F0038AD0FCD55
:101430000FC40FCD0FC495E8070084E8070035AB53
:101440000ECB1AA8FFF790FE1B9DDDF868A01C9E2E
:101450000AFB05F401212046179612950DF062FC57
:10146000002D804640DDBAF1000F3DDD0022CAEBC1
:101470004A73DB0006EB8A0B1693CDF850A04FEAB7
:101480008A034FF00109F8A7D7E900679046924612
:10149000159319941390159BCDF84480ABEB030C76
:1014A000139B644603EB0805E04654F8040B15F063
:1014B000A7FC32463B460BF0AFFE08B185F8009022
:1014C0005C4505F10105F0D1C446169BDDF844806A
:1014D000ACEB030B149B0AF1010A9844129B9A454A
:1014E000D9D1DDE9138A199C6E46129F35AD0FCD17
:1014F000CDE91F78CDF878A00FC60FCD0FC60FCD60
:101500000FC695E8030086E803001AAB0ECB21A8AE
:10151000FFF7D6FE219B239E534540F0E581229B99
:10152000BB4240F0E181002C15DD651E032D05D97D
:10153000731CA8EB0303022B00F26481454408F1FD
:10154000FF33711E13F8012F11F8010FAB4242EA6D
:1015500000021A70F6D11EAD01222946C04B24A804
:10156000FFF7DAF8DDE924135145269A40F0BC81F3
:1015700012998B4240F0B881002C1DDD631E032BB5
:1015800005D9511CA8EB0101022900F20081571E68
:1015900008F1FF321146434411F8010F17F801CF4B
:1015A000994240EA0C000870F6D112F8011F81F050
:1015B00001019A421170F8D101222946A84B27A8AF
:1015C000FFF7AAF8DDE927125145299B40F08C81ED
:1015D00012998A4240F08881002C15DD671E032F86
:1015E00005D95A1CA8EB0202022A00F29F80013B97
:1015F000474408F1FF3212F8011F13F8010FBA42F5
:1016000041EA00011170F6D101222946944B27A826
:10161000FFF782F8DDE927125145299B40F06481EC
:1016200012998A4240F06081002C14DD671E032F5E
:1016300004D95A1CA8EB0202022A49D8013B4744AC
:1016400008F1FF3212F8010F13F8011F974241EA27
:1016500000011170F6D10722824B294624A8FFF71A
:101660005BF8DDE924235245269F40F03D81129A24
:10167000934240F03981002C16DD601E032805D905
:101680007B1CA8EB0303022B00F2F28040447A1E7D
:1016900008F1FF3818F8011F12F8013F804543EAAE
:1016A000010388F80030F5D117980DF063FB304640
:1016B0000DF060FB38460DF05DFB95E80700189BC8
:1016C00083E8070018462BB0BDE8F04F04B0704720
:1016D0001F46424624F0030C08EB0C0E57F8041B7F
:1016E0001068014342F8041B9645F7D16445B2D017
:1016F00024F00302995C18F80200014308F8021074
:101700000CF101029442A6DD995C18F802000CF17C
:10171000020C0143644508F802109CDD13F80C30FC
:1017200018F80C20134308F80C3094E71F46424683
:1017300024F0030C08EB0C0E57F8041B106801434F
:1017400042F8041B7245F7D164453FF45DAF24F0C5
:101750000302995C18F80200014308F802100CF12A
:10176000010294427FF750AF995C18F802000CF127
:10177000020C0143644508F802107FF745AF13F8E7
:101780000C3018F80C20134308F80C303CE7944652
:10179000414624F0030E08EB0E095CF8040B0F68B9
:1017A000384341F8040B4945F7D1744500F0908067
:1017B00024F00301505C18F80170384308F8010068
:1017C0000EF101018C4240F38380505C18F80170E7
:1017D0000EF1020E3843744508F8010078DD18F860
:1017E0000E1012F80E2043440A4308F80E2008F1A8
:1017F000FF3212F8011F81F001019A4211707FF44B
:10180000D4AED9E63146434624F0030008EB000588
:1018100051F8042B1F683A4343F8042BAB42F7D12D
:1018200084423FF498AE24F00303F25C18F80310EE
:101830000A4308F80320431C9C427FF78CAEF25CFD
:1018400018F8031002300A43844208F803207FF797
:1018500082AE335C18F80020134308F800307AE6B3
:101860003333333F5C8F023F111111111111B13F1E
:1018700024F00301384643468E4608EB010C50F82D
:10188000042B19680A4343F8042B6345F7D17445C8
:1018900071463FF409AF24F00303FA5C18F8030023
:1018A000024308F803204B1C9C427FF7FDAEFA5C14
:1018B00018F80300023102438C4208F803207FF736
:1018C000F3AE7B5C18F80120134308F80130EBE617
:1018D00008F1FF3212F8011F434481F001019A42DE
:1018E00011707FF462AE67E6FEF71EFE84B02DE94C
:1018F000F04F2DED088B0446B7B049A880E80E00E4
:101900004C9B5C9D2B93519B4FEA850B1593529BEF
:1019100058461A934B9B06952A935A9B32940F93E1
:101920005D9B07935E9B2C935F9B0093609B0A9348
:101930000DF0E6F9249058460DF0E2F9259058464E
:101940000DF0DEF9002D1C905EDDDDE92478069BAC
:1019500081465E1E07EE906A9FED60AAFFEE009A38
:101960009FED5F9AF7EE008AB8EEE7BAB246A6EBB3
:101970000A0308EE103AF0EE697AB8EEC88AE8EE8B
:101980000A7A17EE900A15F03BFA07EE90AAB0EE2D
:10199000687AF8EEE77AA7EEC97A044617EE100ADD
:1019A000F1EE67AA0D4615F02BFA02460B462046CB
:1019B000294615F029FA0BF0B5FBF0EE697AE8EE4E
:1019C000097A47F8040B17EE900A15F019FAF0EEB1
:1019D000687AEAEE8A7A044617EE900A0D4615F008
:1019E0000FFA02460B462046294615F01DFA0BF069
:1019F00099FBC8EE0B7A0AF1FF3ABAF1FF3FE9EC26
:101A0000017A48F8040BB2D11A9B159A02FB03F72E
:101A1000BE0030460DF074F9002F26900CDD341F07
:101A2000DDF818800444051F042140460DF07AF9C2
:101A300045F8040FA542F7D11A99002940F3A08078
:101A40001598002840F39C802C9A1C9B82429B4452
:101A50001346A8BF0346069D05930F9B002403FB76
:101A600005F3109313464FF0FF381896B0EE004A76
:101A70001E46A64652420E9201EB08021192269A89
:101A8000DDF8289004321392079A1797043A009FC2
:101A900009920B94CDF810900C940E9B002E089395
:101AA00033440E9300F35682002108F101030093A2
:101AB0004FEA8E031293089B03975C1E0A9B0C440B
:101AC0001C44DDE9123213440D930B9B159FCB1878
:101AD00005FB03F34A1ECDF848E02EE00000003B72
:101AE000295CFF3C964240F32C8203990098814286
:101AF00004DD0499895C002940F0FA80B8F1FF3FC9
:101B000000F01A8202F1010E764540F33E810399FE
:101B1000414509DD6178002940F0EC80964203DD03
:101B20002178002940F0E68005EB030C0232974251
:101B3000634604F101040CDD7246511CD2D102321D
:101B400005EB030C97424FF0000E634604F10104CD
:101B5000F2DC039FDDF848E00B9B0F9ADDF8008074
:101B600013440B93049B109A33440493159B9E4497
:101B70000C9B13440C93119B98458ED1DDE917768D
:101B8000DDE94935042105FB03F012930DF0CAF895
:101B90002B9A1890002A40F38580069ADDF8408140
:101BA000531E9A00129B00249B00CDE93376FFEE72
:101BB000008AC2461F4629924F9A15993092599A27
:101BC000DDF828B02892579A1B941392269A3595DF
:101BD00002EB810231921B9B1D9301331B932A9BC5
:101BE000002B52DD4FF00008DAF800101298DAF8F6
:101BF000045000FB01F019901398179100FB01F0BD
:101C0000691A0C913199279001EB84062699C146F7
:101C100001EB84002A995A46594416913946A84640
:101C20003746CDE92EA4309BCDF8B4B0149112F80C
:101C3000015BCE46196809F1010953F8044F002DE4
:101C400040F0A880179D454515DAA14213DA199E88
:101C5000091B3444189E4FEA810C06EB8404149E41
:101C60000CEB0401E1EC018AA142FBD101354545B1
:101C70003444F5D1149616990437914200F10400CA
:101C8000D5D1DDE92DBA2F9C149F159B1B9A1C44BE
:101C90002C9B0AF1040A9B442B9B93429BD1DDE9C8
:101CA0003376359D24980DF065F825980DF062F88F
:101CB0001C980DF05FF8002F09DD269B341F1C4493
:101CC0001E1F56F8040F0DF055F8A642F9D12698BC
:101CD0000DF050F8329B129A1846C3E90025189A65
:101CE0009A6037B0BDEC088BBDE8F04F04B0704788
:101CF00002F1010E002D7FF717AF0021089107991F
:101D000005EB030C980001EB8C0A01EB8303914671
:101D1000002153F8042B53451144FAD107EE901AD1
:101D2000F8EEE77A4A46DDE924A9BFEE006AC4EE80
:101D3000274A099B19180D981C9B50F82200D1EDD9
:101D4000017AF8EEE77AB3EC015A67EEA47AF0EE86
:101D5000465ABAEC017AE5EE275AB4EEE57AF1EE8E
:101D600010FAF9EC016A37FE257AF4EEC76AF1EE53
:101D700010FA58BFF0EE476A5B4501F1040136EEF8
:101D8000276AE0EC016ADAD1D0E6039941453FF7D2
:101D9000C7AEC9E6159D754540F37F811D9D1A9E0E
:101DA000B54280F27A8105680495159D4D4540F352
:101DB000848145680395DDE91A56B54240F3788180
:101DC000179D4545BFF657AFA142A4EB0105BFF6ED
:101DD00052AFDDED067A7C683E680594289C079634
:101DE00004EB81041194189CDDF89CB004EB810194
:101DF00010912999DDF864C07418059E0B9474182D
:101E00000A94049CB8EEE79A0C440994039C4FF0A2
:101E1000000A61185C46E346CDE91E07CDE920982B
:101E200008912293239250460BF08AF90022A54B89
:101E30000BF090F806460C980F460BF081F90B4614
:101E40000246394630460BF0D3F80BF06BF908EE3A
:101E5000100A28460BF074F9119B002603EB840846
:101E6000109BCDE90001CDE90D4B03EB8B07CDF8BD
:101E70003CA036E0069BA34244DD079B03EB8409AC
:101E8000059B03EB840A049B03EB840B039B03EB8E
:101E9000840430460BF054F900228A4B0BF05AF8B8
:101EA000DDE900230BF0A4F80BF03CF9DBED007A40
:101EB00094ED007A9AED006AD9ED006A36EE476A31
:101EC00076EEE76AA6EE087AE6EE887A05EE900AE4
:101ED00037EE677AE7EE257A0136AE42E7EC017A13
:101EE00015D0F8EC017A67EE897AFDEEE77A17EE05
:101EF000904A002CBEDADDE9034BDDF814A0DDF8D2
:101F00001C90C6E7DDE9084BDDE90AA9C1E7129B91
:101F1000DDE90D4B9B44139BDDF83CA01C440C9B5E
:101F20000AF1010A9A457FF47EAFDDE91E07DDE97B
:101F30002098DDE922329EE605EB030C02F1010E4A
:101F4000F4E5B8F1FF3FF7D002F1010E76453FF717
:101F5000DEADE9E54FF0FF330A99CDF858E008FB14
:101F60000611149104990C9A01EB030C08F101017C
:101F700000914FEA8E011291139901EB8E010D91A0
:101F8000009903F1010E8F422EDD9CF8011079BB00
:101F90005C1C29D09E427ADD9CF8001041BBB8F150
:101FA000FF3F0DD076456CDD474509DD149911F8EA
:101FB0000E00E8B9581C03D09E4201DDC95CB9B9D6
:101FC0005419991C059B224699420CF1010C05DB22
:101FD000DDE9153E9942FFF66EADBDE57346009909
:101FE00003F1010E8F42D0DCB8F1FF3FDCD1E7E70F
:101FF000002DE5DD002103910799AC18900001EB5D
:10200000840A01EB82029946002152F8043B5245B2
:102010001944FAD107EE901AF8EEE77A4B46DDE95B
:1020200024A9BFEE006AC4EE274A099A11180D9838
:102030001C9A50F82300D1ED017AF8EEE77AB2EC61
:10204000015A67EEA47AF0EE465ABAEC017AE5EE50
:10205000275AB4EEE57AF1EE10FAF9EC016A37FE90
:10206000257AF4EEC76AF1EE10FA58BFF0EE476A2F
:102070005A4501F1040136EE276AE0EC016ADAD133
:102080009FE747459CDD0A990898014496E7B8F117
:10209000FF3F95D0764587DC92E70B4A1D9B106881
:1020A00072460A49C0680FF045FF01200EF0D6F9CC
:1020B000054A334610687246F3E7034A1D9B1068D1
:1020C0004A46EEE70000E03FB00A0020EC71011044
:1020D0002DE9F04F2DED028B782085B00CF010FE2D
:1020E000DFEDD18A4FF0000A0646051F00F17407A4
:1020F000CDE90257DFF84083DFF840B3A0200CF0B1
:10210000FFFD4FF000093746CDF800908146029B55
:10211000019043F8040F0293C44E08EB480008EB0B
:10212000C06008EB8000002120F040400CF0F7F97F
:1021300052465B460AF00EFF0022BD4B0AF032FF0A
:102140000AF0F0FF14F05CFEB3A3D3E900230AF019
:1021500029FF0AF0E7FFA8FB06830446002128F0C8
:1021600040400CF0DCF952465B460AF0F3FE0022D8
:10217000AF4B0AF017FF0AF0D5FF14F041FE0246FC
:102180000B460020AB490AF05DFD02460B460AF003
:10219000E1FE0AF0C7FF08EE100A204614F030FEF8
:1021A00004460D460BF0E3F902460B46204629464D
:1021B00014461D460BF0D6F902460B46204629462A
:1021C00014461D460AF0AEFF07EE900A67EE887AC5
:1021D00017EE900A14F014FE52465B460AF0BAFE5F
:1021E0000AF056FC0AF0D0FF0346294620461C465A
:1021F0000AF098FF07EE900A67EE887A17EE900AC9
:1022000014F0FEFD5B4652460AF0A4FE0AF040FCC4
:102210000AF0BAFF019BC3E9004054EA00033FF40F
:102220007CAF0028FFF679AF009B002B44D0D9F893
:1022300000309C4200F0C580009B012B3CD0D9F8B7
:1022400010309C4200F0C380009B022B34D0D9F8A0
:1022500020309C4200F0C180009B032B2CD0D9F889
:1022600030309C4200F0D280009B042B24D0D9F85F
:1022700040309C4200F0E480009B052B1CD0D9F834
:1022800050309C4200F0E280009B062B14D0D9F81D
:1022900060309C4200F0E080009B072B0CD0D9F806
:1022A00070309C4200F0DE80009B092B04D1D9F8ED
:1022B0008030A34200F0DC8007EE904AF8EEE77A27
:1022C000054617EE900A14F09BFD07EE905A024661
:1022D000F8EEE77A14460D4617EE900A14F090FDDA
:1022E00022462B460BF0BCFF0AF01CFF08EE100A3A
:1022F000B5EEC08AF1EE10FA0ADA14F081FD48A3B7
:10230000D3E900230AF026FE0AF00CFF08EE100ABB
:1023100018EE100A14F074FD3FA3D3E9002304461D
:102320000D460AF079FF002860D038EE088A78EE72
:10233000287A17EE900A14F063FD39A3D3E900233D
:1023400004460D460AF068FF00284CD134A3D3E9B7
:102350000023204629460AF011FE0AF0E3FE14F09D
:102360004FFD04460D460BF002F902460B4620468F
:10237000294614461D460BF0F5F802460B4620464A
:10238000294614461D460AF0CDFE019E2946B0603E
:1023900020460AF0C7FE3346009A103301320A2A5B
:1023A000F060009201937FF4B7AEDDE90232934210
:1023B0003E467FF4A3AE384605B0BDEC028BBDE8C7
:1023C000F08FD9F8043098427FF436AFA5E6D9F8FB
:1023D000143098427FF438AF9FE6D9F82430984201
:1023E0007FF43AAF99E620462946BCE70AA3D3E931
:1023F0000023204629460AF0C1FD02460B460AF09A
:10240000A9FD0AF08FFE08EE100A90E7D9F83430E3
:1024100098427FF429AF80E6182D4454FB210940EF
:10242000182D4454FB211940DB0F4940190000C00E
:102430000000103E000008407D0000200000E03F4A
:10244000D9F8443098427FF417AF66E6D9F8543093
:1024500098427FF419AF60E6D9F8643098427FF46F
:102460001BAF5AE6D9F8743098427FF41DAF54E69A
:10247000D9F8843083427FF41FAF4EE62DE9F04F48
:1024800095B00D461C46174609910C938146FFF7FF
:102490001FFE6A68064628680121049002FB00F0CE
:1024A000C00002920CF03EFCD4F80CA00890BAF1E7
:1024B000000F0ADD00252C46D7F80080B8F1000F88
:1024C0001CDC0134A2454544F8D1341F06F17405E3
:1024D00054F8040F0CF04EFCAC42F9D130460CF02D
:1024E00049FC4846049BC9F80030029BC9F80430F7
:1024F000089BC9F8083015B0BDE8F08FB8683746BA
:1025000000EB080B5E46A34604465046C246C8464A
:102510004FF0FF3C04EB05094B46614606EB050E08
:10252000CDF800B01A789B4601332AB1ABEB090C09
:1025300031EA210128BF61469E45F3D10029DDF82B
:1025400000B0C0F200810CF1010C8C4540F3FB801F
:102550000C9BDB69002B00F0FF8003EB8B02D2F8B1
:1025600004900C9A53F82B3092694B4552F8211085
:1025700052F82C200791069280F2E580049A9E463C
:1025800002FB03F29446CDE90DB5CDE911860A9719
:102590000F90CDF840A0CDF82C9013946F4BCDF850
:1025A0000CC083FB0E214FEAEE727144C2EB211284
:1025B0000A9BC2EB0212AEEB420253F822A00AF1D0
:1025C000A00BCDF804B0F34605E0019B0AF1100A18
:1025D000534500F09D80DAE9006787EAE770A0EBD9
:1025E000E7700AF0ADFD04460D4686EAE670A0EB02
:1025F000E6700AF0A5FD22462B4614F005FC0AF011
:10260000C3FD83458146E0DB029A00EB0B03934256
:10261000DBDA07980AF094FD04460D4648460AF0B6
:102620008FFD2B46224614F0EFFB0AF0ADFD044669
:1026300006980AF085FD0246049D9046A5EB090028
:1026400089460AF07DFD42464B4614F0EDFB0AF048
:102650009BFD8442B9DAABEB0703A4EB060805FB4C
:102660000388099B039A26445F4405FB07669D681F
:10267000104405EB80030093089B144405EB880885
:1026800005EB8609CDF814B005EB840503EBC40413
:1026900059F8040B14F0B4FB024658F8047B1646B4
:1026A00038460F4614F0ACFB32463B4614F0ACFB08
:1026B00006460F4655F804BB584614F0A1FB3246B7
:1026C0003B460AF05BFC0AF02DFD07EE900AF5EEA2
:1026D000C07AF1EE10FA0FDD9AED036ADAED025AD4
:1026E000D4ED006A94ED017AE5EEA76AA6EE277AAA
:1026F000C4ED006A84ED017A009B08349D42C7D185
:10270000019B0AF1100A5345DDF814B07FF463AF62
:10271000049BDDF80CC00BF1010E9C440B9B9E4505
:102720007FF43CAFDDE90DB5DDE90F0ADDE9118687
:102730000BF1010B58450A9F139C55447FF4E8AEFA
:102740003E46C146C1E60BF1010B584555447FF4A6
:10275000DFAE3E46C146B8E6FDF7F6FE89888888BA
:102760002DE9F04FD2E902780C46054607FB08F048
:102770008DB00121C0001E46934608940CF0D2FA99
:10278000B8F1000F034640F38280044600204FEA70
:10279000C70ACDE909A30B9533460546BC46BCF1F3
:1027A000000F6CDD1A689E6805FB02F2A80006EBBC
:1027B0000C0991441644021DCDE9063C01922146C4
:1027C00000274346CDE904540290221D07E0B1459D
:1027D00007F1040701F1080102F1080249D016F8D7
:1027E000010B0028F3D0DBF81C00002856D0029C17
:1027F000019DDBF818E0045950F805C00EEB070006
:1028000064455EF807E0D0F80480E0DAC645DEDA19
:102810000898CDF80C90D0F800A0856804FB0AF960
:1028200009EB0E00C14405EBC00005EBC90900939C
:10283000034652ED017AD3ED006A77EEA67A90ED69
:10284000017A42ED017AD1ED017A77EE877A08308C
:102850004845C1ED017AEBD101346445009BDDD1DF
:10286000DDF80C900437B14501F1080102F10802CE
:10287000B5D1DDE904549846DDF81CC0069B099AE1
:102880000135454514448AD1DDE90A3567462846B5
:10289000C5E90078AB600DB0BDE8F08F054B1E2296
:1028A0001B680121DB6804480FF08EFD01200DF04C
:1028B000D5FD00BFB00A0020C06E0110000000006E
:1028C0002DE9F04FD2E9009387B08A4604460421EF
:1028D00009FB03F0009390460CF024FA009B002BB8
:1028E00066DDB9F1000F63DD00254A46AE46D146EC
:1028F0002946C246039005940493DAF80800039B26
:1029000000EB010B00EB02085C4675465E46CDE924
:10291000001A884403EB8107029203E0444507F163
:10292000040739D0227823460134002AF6D0D9F89A
:1029300000209B1B02FB0533D9F808B04FEA430A7D
:102940000BEBC302106814F05BFA02460BEB8A0B28
:10295000DBF8040092468B4614F052FA52465B466E
:102960000BF07EFC0AF0DEFB07EE900AF5EEC07A73
:10297000F1EE10FA0ADA14F043FA11A3D3E90023B6
:102980000AF0E8FA0AF0CEFB07EE900A4445C7EDDC
:10299000007A07F10407C5D1DDE9001A049B029A09
:1029A00005F1010E9E451144A7D191460398059C5F
:1029B000A0602046C4E9009307B0BDE8F08F00BFD7
:1029C000182D4454FB2119402DE9F04F9DB00546C8
:1029D0000FA880E80E00014629AB26AA13A8FFF72E
:1029E0004DFD26AB29AA13A916A8FFF7B9FE159825
:1029F0000CF0C0F9269E279C169F04FB06F0189B3E
:102A00000121C00001960C970A930CF08BF9002C61
:102A10000B9040F3E480289A002E0D9240F3DF8063
:102A20004FF0000B7342039704934FF0010A7B426F
:102A30005F460593CDF808B00E954FF00008019B56
:102A40000A9902F1FF3996461A44039B029801EB5A
:102A5000C3050B9B049E03EBC0030D98CDE9082B27
:102A60003044079005987E1E01EBC00001EBCB01BE
:102A7000BB4619F8017F9446069608F10102079EAD
:102A8000BFB9019F0835974203F108030CF1010C0F
:102A900006F1010600F108000EF1010E01F1080136
:102AA00000F08480904619F8017F08F10102002FA0
:102AB000E7D0B8F1000F00F0A580069FB7F1FF3F07
:102AC00021D0BC421DDD16F8017C7FB150ED016ABA
:102AD00010ED026A93ED007AD3ED017A37EE067AB3
:102AE00077EEA67A83ED007AC3ED017A3778002F6E
:102AF00040F00B81019F974203DD7778002F40F073
:102B0000F3805C451FDD1EF8017C7FB151ED016A49
:102B100011ED026A93ED007AD3ED017A37EE067A71
:102B200077EEA67A83ED007AC3ED017A9EF8007005
:102B3000002F40F0C880019F974204DD9EF801708D
:102B4000002F40F0AF8054459BDD1CF8017C7FB125
:102B500055ED016A15ED026A93ED007AD3ED017A25
:102B600037EE067A77EEA67A83ED007AC3ED017A26
:102B70009CF80070002F40F08480019F974280DD18
:102B80009CF80170002F3FF47CAFD5ED036A95ED02
:102B9000026A93ED007AD3ED017A37EE067A77EE8A
:102BA000A67A83ED007AC3ED017A6AE75F46DDE934
:102BB000082BDDE901130B44039802930C9B0137AA
:102BC000184403900498BC42084405990AF1010A8C
:102BD0001944049005919B447FF42FAF0E9D019BF7
:102BE0000B9C0A9819931B940CF0C4F8284626AA4B
:102BF00019A9FFF765FE20460CF0BCF828461DB069
:102C0000BDE8F08F019F012F25D10796069E5F46F4
:102C1000DDE9082BB6F1FF3F00F0EB80B44200F392
:102C2000D280BC4200F3E5805445C2DD9CF8001020
:102C30000029BED0D5ED016A95ED006A93ED007ACA
:102C4000D3ED017A37EE067A77EEA67A83ED007A35
:102C5000C3ED017AADE7069FB7F1FF3F66D0BC42F6
:102C600000F399805C4561DC54457ADC9046083578
:102C700008330CF1010C013608300EF1010E083159
:102C800011E7D5ED016A95ED006A93ED007AD3ED79
:102C9000017A37EE067A77EEA67A83ED007AC3EDF5
:102CA000017A6AE7D1ED036A91ED026A93ED007A49
:102CB000D3ED017A37EE067A77EEA67A83ED007AC5
:102CC000C3ED017A3FE7D1ED016A91ED006A93ED22
:102CD000007AD3ED017A37EE067A77EEA67A83EDA5
:102CE000007AC3ED017A26E7D0ED036A90ED026A1F
:102CF00093ED007AD3ED017A37EE067A77EEA67A75
:102D000083ED007AC3ED017AFBE6D0ED016A90ED28
:102D1000006A93ED007AD3ED017A37EE067A77EE0A
:102D2000A67A83ED007AC3ED017AE3E69EF800709F
:102D3000002F40F096809EF80170002F94D0D1EDC6
:102D4000036A91ED026A93ED007AD3ED017A37EED2
:102D5000067A77EEA67A544583ED007AC3ED017AC0
:102D600084DD9CF80070002F6AD19CF80170002F60
:102D70003FF47CAFD5ED036A95ED026A93ED007ADE
:102D8000D3ED017A37EE067A77EEA67A83ED007AF4
:102D9000C3ED017A6AE73778002F40D17778002FAA
:102DA0003FF460AFD0ED036A90ED026A93ED007AD4
:102DB000D3ED017A37EE067A77EEA67A83ED007AC4
:102DC000C3ED017A4EE7079E3678002E3FF429AF17
:102DD000D0ED016A90ED006A93ED007AD3ED017AAF
:102DE00037EE067A77EEA67A83ED007AC3ED017AA4
:102DF00017E79EF8000000283FF416AFD1ED016AF6
:102E000091ED006A93ED007AD3ED017A37EE067A00
:102E100077EEA67A83ED007AC3ED017A04E7D0ED70
:102E2000016A90ED006A93ED007AD3ED017A37EEF6
:102E3000067A77EEA67A83ED007AC3ED017AADE7E4
:102E4000D5ED016A95ED006A93ED007AD3ED017A34
:102E500037EE067A77EEA67A83ED007AC3ED017A33
:102E600083E7D1ED016A91ED006A93ED007AD3ED2D
:102E7000017A37EE067A77EEA67A83ED007AC3ED13
:102E8000017A58E7000000002DE9F04F8B46A3B00F
:102E9000054622A800E90E00042102FB0BF01446AF
:102EA0000BF040FF329B0A90DB68002B40F352810D
:102EB000219E369A0B962F9E501E12962C9E4FF0F6
:102EC000000E119686001496349E2E9906EB800013
:102ED0005E464FEA8B0AD3461590169470460C4610
:102EE000B246329ADDF8C4909268002A40F32781F6
:102EF00000264FEA8E0C0CF10401139109EB02013C
:102F0000CDE91D954F463546CDE917CECDE919439C
:102F1000CDE91B0204EB80080C9106E00C9B043504
:102F2000BB4208F1040800F0038117F8013B002BB5
:102F3000F4D09DED337AD8ED007A77EE277A17EE4C
:102F4000900A13F05DFF02460B46CDE9002393A3E0
:102F5000D3E900230AF060F960B990A3D3E9002314
:102F6000DDE900010AF00AF80AF0DCF813F048FF86
:102F7000CDE9000189A3D3E90023DDE900010AF0CE
:102F800037F8CDE9000136980AF0DAF80B46024628
:102F9000DDE900010AF006F80AF0F6F8031EC0F2B7
:102FA000E680369A9A4240F3DD80349A359902EBF6
:102FB000830201EB83031C68329BD2F80090DB692B
:102FC000002B00F0D7801799329A5E5813999269B6
:102FD0005B58002C049302EB05035B685259029383
:102FE000039271DD329B18680AF0AAF8329BCDE992
:102FF000060158680AF0A4F8CDE90E85CDE908016C
:1030000009EBC40300930D9405961097039BD9E92F
:103010000075F8180AF094F80022002313F0F4FE6B
:103020000AF0B2F8059B8046E8180AF089F80022F9
:10303000002313F0E9FE0AF0A7F8029B0646F818F1
:103040000AF07EF8DDE9062313F0EEFE0AF09CF8A4
:103050000446049BE8180AF073F8DDE9082313F02E
:10306000E3FE0AF091F8A04524DA864222DAE11B59
:10307000A8EB0703401B751B5B1A05FB0A110AFB33
:1030800006F60B9A9C000A9B02EB880803EB810171
:1030900008EB86026318D3ED007AB2EC017A77EE82
:1030A000877AE3EC017A9942F5D10135854256449D
:1030B0005944EDDB009B09F108094B45A6D1DDE938
:1030C0000E850D9C059E109F049B9E42BFF626AF69
:1030D000DDE902329A42BFF621AF20460AFB0634F0
:1030E0000A9901EB84040AF02BF802460B460020F3
:1030F000274909F07DFF0AF015F8DDE9023207EEF5
:10310000100AD21A049992001319D3ED007A67EECF
:10311000277AE3EC017AA342F7D101368E425C4470
:10312000F2D10C9B0435BB4208F104087FF4FDAEDC
:10313000DDE918E4DDE91A30DDE91C291E9D12994C
:103140000EF1010E894411999E4508447FF4CDAEDD
:10315000D346169C28460A9BC5E900B4AB6023B051
:10316000BDE8F08F359B1499159A0B4423E7DDE9F0
:10317000342320E7074B1E221B680121DB68064829
:103180000FF022F901200DF069F900BFAFF30080C4
:103190000000F03FB00A0020C06E0110182D44540A
:1031A000FB211940000000002DE9F04F2DED068BAA
:1031B00097B0044613A880E80E0080200BF0A0FD15
:1031C00081464FF0010880200BF09AFD4B4600220B
:1031D000DFED719A9FED6CAB4FF0000A4746CDE9E9
:1031E0000F90051F43F80429DFF8B4B10D950E9335
:1031F000119512944FF400600BF082FD054638469D
:1032000085ED00AB09F09CFF61A3D3E9002309F031
:10321000C9FE0022614B09F0C5FE09F083FFF6EEFE
:10322000007A07EE100A67EE277A17EE900A13F07D
:10323000E7FD804689460AF09AF909F073FF49468E
:1032400009EE100A40460AF08DF909F06BFF2E4690
:10325000B1EE0C8A08EE900A4FF006094FF0010813
:10326000043668EE097A17EE900A13F0C9FD52464B
:103270005B4609F06FFE09F00BFC09F085FF68EE74
:10328000287A044617EE900A13F0BAFD52465B46C0
:1032900009F060FE09F0FCFB09F076FFB8F1000FC1
:1032A00058DD002302E00133984553D055F8332010
:1032B000A242F8D156F833208242F4D1B9F1010983
:1032C00088EE298ACDD14FEAC80420460BF018FDBC
:1032D0000D9B224643F8040F29460D930EF04CFD3A
:1032E0000E9B284643F8048F02370E930BF042FDE5
:1032F000412F7FF47FAFDDE90F97DDE911562C9B5D
:10330000CDE90879069320230A93002329AA07937D
:1033100003AB07CA83E8070026AB93E807008DE8F4
:10332000070013AB30460ECBFFF7AEFD07F17C0470
:1033300055F8040F0BF01EFDA542F9D138460BF0ED
:1033400019FD48460BF016FD304617B0BDEC068B54
:10335000BDE8F08F4FEAC80345F83840083305EB65
:10336000C80264425060B9F10109EC50C0F100009C
:103370002B4488EE298A586008F102087FF471AF67
:10338000A1E700BFAFF300800000000000000000D4
:10339000182D4454FB2119401F85CB3F0000903F5E
:1033A0000000E03F000000002DE9F04F2DED068BFE
:1033B00097B0044613A880E80E002C200BF0A0FC68
:1033C00081464FF001082C200BF09AFC4B4600225E
:1033D000DFED719A9FED6CAB4FF0000A4746CDE9E7
:1033E0000F90051F43F80429DFF8B8B10D950E932F
:1033F000119512944FF400600BF082FC054638469C
:1034000085ED00AB09F09CFE61A3D3E9002309F030
:10341000C9FD0022614B09F0EBFD09F083FEF6EED9
:10342000007A07EE100A67EE277A17EE900A13F07B
:10343000E7FC804689460AF09AF809F073FE49468F
:1034400009EE100A40460AF08DF809F06BFE2E4690
:10345000B1EE008A08EE900A4FF014094FF001080F
:10346000043668EE097A17EE900A13F0C9FC52464A
:103470005B4609F06FFD09F00BFB09F085FE68EE75
:10348000287A044617EE900A13F0BAFC52465B46BF
:1034900009F060FD09F0FCFA09F076FEB8F1000FC2
:1034A00058DD002302E00133984553D055F833200E
:1034B000A242F8D156F833208242F4D1B9F1010981
:1034C00088EE298ACDD14FEAC80420460BF018FCBB
:1034D0000D9B224643F8040F29460D930EF04CFC39
:1034E0000E9B284643F8048F02370E930BF042FCE4
:1034F000172F7FF47FAFDDE90F97DDE911562C9B85
:10350000CDE9087906930B230A93254B29AA079343
:1035100003AB07CA83E8070026AB93E807008DE8F2
:10352000070013AB30460ECBFFF7AEFC07F12804C3
:1035300055F8040F0BF01EFCA542F9D138460BF0EC
:1035400019FC48460BF016FC304617B0BDEC068B54
:10355000BDE8F08F4FEAC80345F83840083305EB63
:10356000C80264425060B9F10109EC50C0F100009A
:103570002B4488EE298A586008F102087FF471AF65
:10358000A1E700BFAFF300800000000000000000D2
:10359000182D4454FB2119407B148E3F0000364007
:1035A000DB0F49400000E03F2DE9F04F0C46254677
:1035B00093B0D5E900A90121804609FB0AF00994DE
:1035C0000A921C460BF0AEFB1C9B0890DD68002D98
:1035D0007FDD9B68002B7CDD00204FF0010BA6688F
:1035E000276806EB030CCDE90C6704464FEA8A0313
:1035F00002901C9801930E95CDF84080CDF8449030
:10360000CDF83CC00D9B0F9D04FB03F1029B0022F3
:103610000793043302930C9B0B940B44294403E05F
:103620008B4202F104024DD013F8014B002CF7D06D
:10363000D0E90645079EAF59029E55F80680A518A9
:103640004745A4586D68EBDAAC42E9DA0AFB07F6A5
:10365000A5EB040E099DCDE90423D5F80890A51922
:10366000AD000395089D09EB8E0E05EB040C0A9C3A
:10367000039DA4680391069009EB050361190CEB07
:1036800006020EEB0500F3EC017AB1EC017A77EE5D
:10369000C77AF5EEC07AF1EE10FAC8BF82F800B032
:1036A000834202F10102EED1019B013747451D44DF
:1036B0005644E1D1DDE90423039906988B4202F1D7
:1036C0000402B1D10B9C0E9B01349C429AD1DDE9DE
:1036D00010894046089BC8E900A9C8F8083013B013
:1036E000BDE8F08F4368012B4BDD2DE9F04F80469C
:1036F0004FF0000E046883B003F1FF390020274625
:10370000054684464E46012C05F101052EDDD8F80C
:103710000820824602EB040909F1FF391318AB4671
:103720003A44814401940EE058B154B94DB94FF078
:10373000010C03F801EC02F801EC83F800E082F8D8
:1037400000E099450FD01978507813F8015F12F80E
:10375000014B0029E8D1002CF3D0002DF1D0002836
:10376000E5D09945EFD150465D46019CAE422044DC
:103770002744C8D1B146BCF1000FBFD103B0BDE8AA
:10378000F08F70472DE9F04F2DED028B0B4699B06D
:103790000093D0E900B303FB0BF4012182462046DD
:1037A0000A930BF0BFFA002C0A9B40F3CE81002B4A
:1037B00040F36D81BBF1000F40F36981002637466D
:1037C000DAF808C0DDF8289000F1FF380CEB0B0E9A
:1037D0000CEB060208EB06010EEB060512F8013BA6
:1037E00083F00103AA4201F8013FF7D10137B9453F
:1037F0005E44EDD1002840F04A8168200BF080FA49
:103800009FEDB98A01250746064607EE905AF8EE65
:10381000E77A67EE887A17EE900A13F0F1FA09F06A
:1038200075F909F0B1FC01351A2D46F8040FECD1F9
:1038300000200BF065FA0346384616930BF09AFA0F
:1038400068200BF05DFA00239FEDA78A012506464C
:103850000590036007EE905AF8EEE77A67EE887AF3
:1038600017EE900A13F0CCFA09F050F909F08CFC2D
:1038700001351A2D46F8040FECD1042120460BF037
:1038800051FA03460121204698460BF04BFA0A9B59
:103890008146222B40F34F810F2306930BEBCB0382
:1038A0000BEB4301CBEBCB035D000BF1020300EB11
:1038B000030E4FEA0B1307930A9B0BF1FF32A3F1A0
:1038C000130C08EB8B03CDE913C3009B0F92CDF8CB
:1038D00048801790CDF854E0069A941C03940A9CF3
:1038E000101D84420E9000F317812046013C821A7D
:1038F0000B940492BBF1220F76DD149A01F11304AC
:1039000002F1400C0094129AABF113040798029450
:10391000159C40320CEB800C02EB800220180C90BE
:103920000B9805F1130901300D900F264846CDE99B
:10393000105143B199681C68039D314404FB051183
:103940008978002941D0D2E900E5341DA345C8BFDC
:103950000527DCF80010D6BFABEB0607A046DDF864
:103960003C800029019740F39580002D40F3928020
:10397000BEF1000F40F38E802944A1EB0E05DAF86A
:1039800008E00EEB000717F8057C07B9013D0A9F18
:103990000E998F4200F3AA80A34540F3A2801EF83F
:1039A0000010002900F09D802C46013D0199CCF8C3
:1039B0000440049C04FB01F1059C54F821108D4245
:1039C00003DB4FF001040C998C550099013601314D
:1039D000009102990CF1040CB14200F1010002F1D6
:1039E0000402A6D1DDE910510798069A58440790C1
:1039F000139801328242069259445D447FF46CAFC1
:103A0000DDF848800598DDF85C900BF0B3F940468E
:103A10000BF0B0F9BBF1000F26DD4FF0FF300025B1
:103A2000169B0BF1FF36DAF808C00A9C1E441F18DB
:103A3000CDF800B03A4683460CEB000309EB000ECC
:103A400013F8010F12F8018F1EF8011F18B1B8F119
:103A5000000F08BF0146B2421970F1D15846009BD1
:103A60000135AC421844E5D15046FFF73BFE169BAA
:103A700013B118460BF07EF9B9F1000F56D0484645
:103A800019B0BDEC028BBDE8F04F0BF073B90BF031
:103A900071F9B2E606990B9CA14244DC00258E46E2
:103AA0000799CDE908C2DDF834C0A1EB0B0706F198
:103AB000FF3946450CDCDAF8084009EB07022244DE
:103AC00044443C4412F8011F01B10135A242F9D12E
:103AD0000EF1010EE6455F44EBD1DDE908C26C1C36
:103AE00064E76C1C62E700BFF6281C3F00990EEBF0
:103AF000010717F8057C07B1013DA345F1DD1EF86C
:103B000000406CB96C1C00991EF8011000293FF4AC
:103B10004DAF2546013449E705220B900492E9E6B2
:103B20002C46013DEFE7012400253FE719B0BDEC2D
:103B3000028BBDE8F08F05980BF01CF940460BF0A6
:103B400019F90A9B002B8FDD64E7002B7FF752AE3B
:103B5000BBF1000F3FF732AE00283FF44EAE96E7C0
:103B60002DE9F04F92E850048BB00F4680460121BA
:103B700006FB04F0D56893460BF0D4F8002D0790AF
:103B800027DDBAF1000F24DD0023CDE90858B64641
:103B9000B846D7F80090039302930020039B069346
:103BA00004330393029B09FB03F30493814504DD73
:103BB000D8F80430029A934214DC01308245F5D1E2
:103BC000029B089A01339A420293E6D17646DDF8C9
:103BD00024804046079BC8E90046C8F808300BB06F
:103BE000BDE8F08FD8F80830049A13441B5C002B12
:103BF000E3D0DBE90613069A039D9A585F5901EB5F
:103C00008003BA4251F820C05968D6DA8C45D4DA1C
:103C100004FB02F501EAE176CDF814A0002A18DBD6
:103C2000964516DDBCF1000F634604DA0133B3425A
:103C3000FCDB8B420DDA01929C4206DD079A02EB17
:103C4000050A4FF001020AF8032001339942F3DC20
:103C5000019A0132BA422544E0D1DDF814A0ACE764
:103C60002DE9F04F0D461746D5E9006389B00121D3
:103C7000044603FB06F005930BF054F8059BA3EBF9
:103C8000070B5F4544DAF31B9F4241DAC1190491E7
:103C900000225946D5F808A04FEA4709534409FBCA
:103CA00006F50393B31C07FB03F306FB07F8C9F102
:103CB0000009013D0297069007940298049C101891
:103CC00000EB0A0E039804EB080C02EB000B0AEB66
:103CD0000304CDF804801EF8010BAEEB020830B1EE
:103CE00018F8050018B114F8090000B12078DE4575
:103CF00004F101040CF8010BEDD1DDF8048001376B
:103D00008F4233443244B0443544D6D1DDE9060411
:103D1000059B2660C4E90130204609B0BDE8F08F5C
:103D20002DE9F04F0E46D6E9004707FB04F88DB0A9
:103D30000121834640460AF0F5FFB8F1000F054621
:103D4000CDE90647089040F3A680022F64DD022CDF
:103D500004F1FF3A35DD0120A446B668A11EB21E6B
:103D600021F00303224400921A18994602929A1CE9
:103D70000333CDE9043B04F1010E013F0191AE4450
:103D8000A4F103080392B8F1050F06D90CF1020360
:103D90003344AEEB0303022B49D8009906EB0C0326
:103DA00005EB0C0201EB0C0B13F8011F5B4502F84D
:103DB000011FF9D10130B842A444A644E3D1DDF893
:103DC00014B009AE06AC012221463046FFF748FF89
:103DD0004DBB96E807000125022784E8070000E0B4
:103DE0001F4630462A462146FFF73AFF089808B199
:103DF0000AF0C0FF96E807006D00EB190E2B84E86F
:103E00000700EDDD0E2F37D194E807008BE807009F
:103E100058460DB0BDE8F08F09AE06AC0122214630
:103E20003046FFF71DFF28460AF0A4FFD1E772468F
:103E30000CF10103334403EB090B53F8041B5B45FE
:103E400042F8041BF9D1019B4B45B3D0029B63445C
:103E5000F25CEA54039B9A45ACDD6344F25CEA549D
:103E6000049B9A45A6DD6344F25C0130B842EA54F3
:103E7000A444A64487D1A2E730462146C7F10E02EA
:103E8000FFF7EEFE089808B10AF074FF96E8070005
:103E900084E80700B8E7022F3FF759AF91E700BF6A
:103EA000F8B5C668002E27DD074680680D46011F5D
:103EB0000A46002301E0B3421ED052F8044F0133FA
:103EC000A542F8D1002301E09E4212D051F8042F00
:103ED0001C46954203F10103F6D19E4207DDA40082
:103EE000F31A211D01449A0020440DF0B9F9013E56
:103EF000FE602B69BB4200D0F8BD0024294638463D
:103F00002C61FFF7CDFFEB682C615C61F8BD00BF51
:103F100070B520200AF0F4FE002504460826402053
:103F2000C4E901560AF0ECFE0346A561236025773B
:103F300020200AF0E5FE034601221D772046C3E952
:103F40000156C3E9045525616561E360DC609A614F
:103F500070BD00BF38B504460069884218D00D46D0
:103F600020B1002321462361FFF79AFF25616DB13F
:103F7000E86800280DDDAA680023043A01E09842B1
:103F800007D052F8041F01338C42F8D1E3685D6119
:103F900038BD2846214600F025F820698542F5D035
:103FA00020B1002321462361FFF77AFFE8682561ED
:103FB00000280DDDAA680023043A01E0834207D0FF
:103FC00052F8041F01338C42F8D1E3685D61DEE7EB
:103FD0002146284600F006F829462046FFF7BAFF9A
:103FE000F3E700BF70B50646D0E90205002D0C4688
:103FF0000ADD0023021F01E09D4205D052F8041F94
:1040000001338C42F8D170BD33699D4211D06B1CD5
:10401000002BF36040F825401DDD0023043802E04A
:10402000AB4218D00B4650F8042F591C9442F7D1DC
:10403000E9E705EB450505EBD575691001313161FF
:1040400089000AF085FEF568B0606B1C002BF360F8
:1040500040F82540E1DC30462146FFF7C3FF2069E8
:104060008642D0D020B1002321462361FFF718FFFC
:10407000F068266100280DDDB2680023043A01E0F3
:10408000834207D052F8041F01338C42F8D1E36811
:104090005E6170BD21463046FFF7A4FF31462046E1
:1040A000FFF758FFF3E700BF70B50446006938B169
:1040B000002521462561FFF7F3FEE36825615D6178
:1040C00063695BB10026E5682869666130B12946FD
:1040D0002E61FFF7E5FEEB682E615E6170BD00BFEB
:1040E0002DE9F04182B0E84684680646002C1F4660
:1040F00088E80600056816DD00220846019B05F1E8
:10410000040C02E00132A2420DD055F83210884270
:10411000F8D15CF832108B42F4D1736843F8227006
:1041200002B0BDE8F081F368A3420DD0736805EBDF
:10413000C405621C98E8030085E8030043F8247076
:10414000B26002B0BDE8F08104EB440404EBD47427
:10415000611001312846F160C9000AF0F9FDF168EB
:104160003060890070680AF0F3FD35680346B46872
:104170007060DCE72DE9F047074682B010200AF0B6
:10418000BFFD0022064640234FF40070C6E902231B
:104190000AF0B6FD04464FF4807034600AF0B0FDBA
:1041A000B968706000293CDD002005467B68002866
:1041B000E846814653F825A01CDD3468002204F14E
:1041C000040C02E00132824214D054F832309A4595
:1041D000F8D15CF83230002BF4D1736853F82230F8
:1041E00043B10135A9421BDDB0687B68002853F854
:1041F00025A0E2DCCDE900A9534698E80600304648
:10420000FFF76EFFBAF1000F06D0DAF800000AF0EF
:10421000B1FD50460AF0AEFDB9680135A942E3DCB4
:10422000346820460AF0A6FD70680AF0A3FD304607
:104230000AF0A0FD38680AF09DFD78680AF09AFD42
:10424000384602B0BDE8F0470AF094BD2DE9F04FC2
:104250002DED028B87B0A2EB000AA3EB010B06AD9C
:104260000F4605E903008AEAEA798BEAEB71A9EBCC
:10427000EA79A1EBEB7102AC8945804684E80C0039
:104280000192C0F28E800C200AF03AFD09F101097A
:10429000054600244FEAC9000AF032FDA245064651
:1042A000C5E90004019AC5F8089034DD07EE90BA1C
:1042B000B8EEE77A07EE90AAF8EEE77A87EE278A5B
:1042C0000AF1010A07EE904AF8EEE77A67EE887A7B
:1042D00017EE900A12F094FD0022934B08F03AFE7C
:1042E00008F0D6FB08F050FF4C4508EB040B00EB40
:1042F000070200F09980631C46F834B0534506EB82
:10430000C40462606B601C46DCD1284607B0BDEC7B
:10431000028BBDE8F08F00F0EA80B8EB0202F4D423
:1043200007EE90BAB8EEE77A07EE90AAF8EEE77AD1
:1043300002F1010A87EE278A09E046F834B0631CCF
:1043400006EBC404534562601C466B60DDD007EE8B
:10435000904AF8EEE77A67EE887A17EE900A12F044
:104360004FFD0022704B08F0F5FD08F091FB08F0BE
:104370000BFF4C45A8EB040BA7EB0002DDD14FEA85
:10438000440930462101C5F8089001920AF0E0FC8A
:10439000631C40F834B00646019A286000EBC40460
:1043A000D0E70C2001F1010901930AF0A9FC0024D7
:1043B00005464FEAC9000AF0A3FCA3450646C5E935
:1043C0000004C5F808905EDD07EE90AAB8EEE77A23
:1043D00007EE90BAF8EEE77A87EE278A0BF1010A2A
:1043E00007EE904AF8EEE77A67EE887A17EE900AC1
:1043F00012F006FD00224C4B08F0ACFD08F048FB23
:1044000008F0C2FE4C4500EB080B04F1010306EB7B
:10441000C40107EB04021FD0534546F834B06B606B
:104420001C464A60DCD170E74FEA4409304621015E
:10443000C5F8089001920AF08BFC631C019A40F8C1
:1044400034B0534500EBC404626006461C46286045
:104450006B607FF437AF58E74FEA440930462101DB
:10446000C5F8089001920AF073FC631C019A40F8A9
:1044700034B0534500EBC404626006461C46286015
:104480006B60ADD141E7019BFB1A3FF53EAF07EEF4
:1044900090AAB8EEE77A07EE90BAF8EEE77A87EEE0
:1044A000278A03F1010A07EE904AF8EEE77A67EEF1
:1044B000887A17EE900A12F0A3FC00221A4B08F03B
:1044C00049FD08F0E5FA08F05FFE4C45A8EB000B4B
:1044D00004F1010306EBC401A7EB04020CD0534521
:1044E00046F834B06B601C464A60DCD10DE701230E
:1044F000C0E900876B6008E74FEA440930462101B4
:10450000C5F8089001920AF023FC631C019A40F858
:1045100034B09A4500EBC404626006461C4628602D
:104520006B60C0D1F1E600BF0000E03F30B583B062
:104530006D46044685E8060028B383691BB1C3684D
:10454000002B18BF1C46D4E901318B4220680EDADB
:104550005A1C00EBC303626095E8030083E8030084
:10456000E36813B1A168C3E9012103B030BD39B9D3
:1045700040210823A3600AF0EBFB63682060E7E7B3
:104580004B000901F6E74368FFDE00BF2DE9F04F5D
:10459000814683B00C200AF0B3FB00228346082337
:1045A0004020CBE901230AF0ABFBD9F804C0CBF8DB
:1045B0000000BCF1000F40F387804FF0FF364FF052
:1045C000010AD9F8003005E008F10208C4450AF1F3
:1045D000010A79DD002BB04606F10106F4DD4FF04B
:1045E000FF370125B44505F1FF34EDDDD9F808208A
:1045F00006FB0321085D20B9AB42E5DD013501373B
:10460000F0E79F4276D2B8F1FF3F00F08680C445C4
:104610007ADD08FB0320A342C05D59D9C44577DD8C
:1046200008FB032E1EF804E0BEF1000F00D001309D
:104630009D426FD2C44507DD08FB032E1EF805E03E
:10464000BEF1000F00D001309F425AD211F807E0AE
:10465000BEF1000F00D001309D4240D3BAF1000FEF
:1046600018DBE2455EDA03FB0A21C95D01B10130C6
:10467000A3420FD9E2450DDA03FB0A21095D01B11E
:1046800001309D4206D2E24504DA03FB0A22525D64
:1046900002B10130012801D00228ADDDDBE90121A2
:1046A0008A42DBF8000040D040F83240511C00EB59
:1046B000C200AB42CBF8041046609FDC08F1020850
:1046C000C4450AF1010A85DC584603B0BDE8F08F05
:1046D0009D421FD2B8F1FF3FACD19F42B6D3495D96
:1046E00001B101309F42B9D3A342D3D9BAF1000F2F
:1046F000C0DACFE7A3424FF00000E9D9B8F1FF3F9D
:104700008CD19D42EBD3EFE7A3424FF00000DFD9FD
:104710009D42E2D39F4299D3E6E7A3424FF00000C7
:1047200092D893E7A342B5D8ABE75300CBF8083053
:10473000110101920AF00CFBD9E9003C019ACBF877
:104740000000B1E72DE9F04F064687B010200AF0CF
:10475000D7FA0024834640234FF40070CBE902438C
:104760000AF0CEFA03464FF48070CBF800300AF01E
:10477000C7FA7368CBF80400A34240F317812746B9
:1047800033688C4D03EBC70393E8030004AB83E865
:1047900003002B464FF000080D46824699460297CB
:1047A0000396D9F80010D9F80430002C514405EBD9
:1047B00003061ADDDBF800000023071D02E00133C9
:1047C000A34212D050F833208A42F8D157F8332050
:1047D000B242F4D1DBF8042052F823702FB14745E0
:1047E00002D0B8F1000F08D1B846734B09F108099F
:1047F0004B457BD0DBF80840D3E7D8F80430002BDA
:10480000F2DD3A68002410467968D8F80030019546
:1048100003EBC4056D6853F834600095BD684A1C0D
:104820008D4200EBC10C49D07A6040F831600099AC
:104830000134CCF80410D8F80410A14201DD11466F
:10484000E6E700290846019DCEDD0026DBF80810CA
:104850000095D8F80030002903EBC602DBF800C051
:1048600053F83640556817DD00230CF1040E02E0C2
:1048700001338B4210D05CF833209442F8D15EF8BB
:1048800033209542F4D1DBF8042042F8237001363E
:104890008642DEDB009DA7E7DBF80C308B4248D078
:1048A000DBF804304CF831400CEBC10CCCF8045070
:1048B00043F821700131CBF80810E8E74B00BB60EA
:1048C00009010AF045FA7B6838605A1C7A6000EBEF
:1048D000C30140F83360009B01344B60D8F80410EA
:1048E0008C42AEDA1146D8F8003091E7D146029FEB
:1048F000AA46039EB8F1000F48D0D8E901139942A7
:10490000D8F8000034D000EBC1020131C8F804101F
:10491000C2F80090C2F804A004AA434606CA58464A
:10492000FFF7DEFB73680137BB423FDDDBF8084071
:1049300026E701EB410101EBD171491001316046DD
:10494000CBF80C10C9000AF003FADBF80C10CBF816
:1049500000008900DBF804000AF0FAF90346DBF8EE
:1049600000C0D8F80400DBF80810CBF8043099E751
:104970004B00C8F8083009010AF0EAF9D8F8043009
:10498000C8F80000591C00EBC302BFE70C200AF076
:10499000B7F90022804608234020C8E901230AF025
:1049A000AFF901210246C8F80000AFE7584607B04A
:1049B000BDE8F08F24850110648501102DE9F04FCA
:1049C000834687B0102089460AF09AF900220646ED
:1049D00040234FF40070C6E902230AF091F9034620
:1049E0004FF4807033600AF08BF9D9F808207060BA
:1049F000002A5CDD002714460DF10808D9F80050A4
:104A000005EBC70393E8030005F1040E00238C4671
:104A100088E8030003E00133A34200F0A58055F8C5
:104A200033205EF833109042F5D18C45F3D1D9F89C
:104A3000042052F823E004ABDEF800C09CE8030039
:104A4000044683E80300B0680D46002833DD316872
:104A5000002301F1040A02E0013383422BD051F814
:104A60003320A242F8D15AF83320AA42F4D1726816
:104A700052F82330FBB1002301F1040C02E00133B2
:104A8000984258D051F833209442F8D15CF8332042
:104A90009542F4D1726852F82330304698E8060007
:104AA000FFF71EFBD9F808400137BC42A6DC3046B0
:104AB00007B0BDE8F08FDEF80410002951DD0023B7
:104AC00018460CEBC10EDCF800200CF1080C134466
:104AD0005CF8042CF4451044F5D193FBF1FA90FBFB
:104AE000F1F2142001920AF00BF90346019A042115
:104AF0005A6000221961DA60C3F800A01020019307
:104B00000AF0FEF8DBE90421019B8A42986014D088
:104B1000DBF80C0040F8223004AA304606CAFFF742
:104B2000DFFADBF81030B06801330028CBF8103022
:104B300001DD31689FE70023AFE702EB420202EBA1
:104B4000D27251100131CBF81410DBF80C0089003F
:104B500001930AF0FDF8DBF81020019BCBF80C0064
:104B6000D8E700229246BCE700231B68FFDE00BFA7
:104B70002DE9F04F814693B010208B460AF0C0F823
:104B80000027024640234FF40070C2E90273144626
:104B900003920AF0B5F820604FF480700AF0B0F884
:104BA0006060DBF80840E50028460AF0A9F80646F0
:104BB0002A46DBF800100DF0DFF89F4B0822214653
:104BC00030460CF031F8DBF80830BB424CDD341DC8
:104BD0002246DE463C461746DFF864A204963A1F9A
:104BE000DEF8006092E8030008AA0025834682E808
:104BF0000300D7F8008006F1040C02E001359D4265
:104C00005BD056F835209345F8D15CF835209045B7
:104C1000F4D1DEF8040050F825200292CDE90047D7
:104C20007746864D2C681BEB040411D4D9F800207C
:104C3000A2420DDD6E6818EB060609D4D9F80410FF
:104C4000B14205DDD9F8081006FB02110A5DDAB998
:104C50000835AA45E6D1009CBE460134019F9C421E
:104C600007F10807BBDB049E30460AF083F8039C7B
:104C700020680AF07FF860680AF07CF8204613B0DC
:104C8000BDE8F04F0AF076B8002B1ADD3868002234
:104C9000AC46011D02E001329A4211D050F8325068
:104CA000AC42F8D151F83250AE42F4D17968654641
:104CB00051F82220002ACBD103E000220292ADE776
:104CC000654603988168002917DD006800229E462A
:104CD00000F1040C02E001328A420ED050F832306A
:104CE0009C42F8D15CF832309E42F4D1039973466D
:104CF000496851F82220002AAAD120200AF000F8A1
:104D0000082102460023916053604020059209F07B
:104D1000F7FF0023059A106093611377202009F0B4
:104D2000EFFF00234FF0010C0821059ACDE908B8E8
:104D3000C2E90433C0E904334360037708ABC0F829
:104D400018C08160D060C260104693E80600FFF78B
:104D5000EDFBCDE90A460AAB059893E80600FFF79C
:104D6000E5FBCDE9068BC4465846A046AB46334B1F
:104D7000D3E9004518EB040403F10803354437D4A4
:104D8000D9F80010A14233DD002D31DBD9F8042021
:104D9000AA422DDDD9F8082005FB0122125D3AB3A5
:104DA000844223D0CDE90C450CAB059893E806006E
:104DB000FFF7BCFBB868002813DD3968002301F158
:104DC000040C02E0013383420BD051F833209442AB
:104DD000F8D15CF833209542F4D17A6852F8233048
:104DE0004BB9B44640462E46A046C0E7AC45D9D1A3
:104DF0009A45BDD1D6E7059BDDF818809A690695DE
:104E000026465D46DB68DDF81CB0002A5AD033B177
:104E10001A46DB681BB1D2E90112C3E901120598F9
:104E20000299FFF797F8B86800285DDD396800231C
:104E30000C1DA44609E000BF0103001024850110E9
:104E400064850110013383424ED051F833209642DD
:104E5000F8D15CF83320069C9442F3D17A6852F87A
:104E60002310059A53698B4203D0D0685161FFF734
:104E700071F8059A93697BB3D3680EAAD3E9003120
:104E8000023903EBC10393E8030082E8030006CA7A
:104E9000059C03982346FFF723F9E3689A699AB1C2
:104EA000DB6810AAD3E90031023903EBC10393E8B0
:104EB000030082E8030006CA059B0398FFF710F978
:104EC000BB68C5E6059AA5E71B6810AA083393E8F6
:104ED000030082E80300EEE713680EAA083393E8A4
:104EE000030082E80300D2E70021BAE70369002B40
:104EF00040F3B3802DE9F04F00240646254689B0E3
:104F0000F26852F82570F968002971DD0024CDE9B6
:104F10000456BB68386853F82460D7F804C0B369F6
:104F2000002B6BD132681368834271D092E8030082
:104F300006AB83E8030097E80C0006A903C9FFF756
:104F400085F9D0F804B00190BBF1010F40F38280E5
:104F50004FF00108CDE90247D0F800A019E0D6E9EA
:104F60000172BA425CD0F468002F316806DD01F1AD
:104F70000800FA0000910CF073F90099C1E900599A
:104F800008F10108B2680137D8457760C4E90172B9
:104F90001FDAB1690AEBC8025AF83850D2F8049007
:104FA0000029DCD0F468002C36D0D4E901329342D9
:104FB00037D02168E0685F1C08F101086760D845B8
:104FC00041F8335001EBC301C1F80490C0E901720C
:104FD000DFDBDDE90247504609F0CCFE019809F01D
:104FE000C9FEF9680134A14293DCDDE90456336956
:104FF00001359D4284DB09B0BDE8F08FF268D2E94B
:105000000023013B52F833E002EBC30286458DD109
:10501000536863458AD1E5E7D6E90112914214D17C
:1050200034465200511CA1602068C90009F090FE6E
:10503000E36820601BB1D4E90112C3E90112019BAE
:10504000B269F468D3E900AB12B1D4E90132B0E738
:10505000776889E7D0F800A0BDE770472DE9F04FE9
:10506000064687B01820D6E900980F4609F048FE9A
:105070000025044610234020C4E90198636127708D
:10508000256109F03DFEE060002800F0D480304644
:10509000FFF77CFA0746FFF755FB8046386809F0B2
:1050A00069FE384609F066FED8F80820002A1CDDA3
:1050B0009446A146AE46D8F800502F1D002355F85F
:1050C0003E2057F83E4003E00133634500F0B880CE
:1050D00055F8331057F833008A42F5D1A042F3D186
:1050E0000EF1010EE645E9D14C4641462046FFF758
:1050F00065FC82464046FFF73DF8DAF80830002BA1
:105100006FDD4FF00009CDE90446DFF844B14E4DA4
:10511000DAF80030584603EBC90253F839105268E8
:105120000BF0FAFBDAF80010DAF808004FEAC904CD
:105130000B19002851F839405F687EDD00230E1DF1
:1051400002E00133834278D051F833209442F8D101
:1051500056F833209742F4D1DAF804203B4852F84D
:105160002370FB68D7E900120BF0D6FBFB68002B1D
:105170002FDD0026DFF8DC80CDF80C90BB6853F8FB
:105180002640D4E90412D2E90030D1E9001200909F
:1051900040460BF0C1FB6368002B11DD4FF00009A6
:1051A000A369A3BB2368284603EBC90253F839104F
:1051B00052680BF0B1FB636809F101094B45EFDC64
:1051C0000A200BF0E5FAFB680136B342D6DCDDF8C5
:1051D0000C90DAF8083009F101094B4598DCDDE95B
:1051E000044651463046FFF7C3FC2046FFF77EFEDB
:1051F000DAF8000009F0BEFDDAF8040009F0BAFDA3
:10520000504609F0B7FD204607B0BDE8F08FE268D0
:10521000D2E90023013BA3EB090302EBC30052F8E0
:105220003310426828460BF077FB636809F10109E7
:105230009945B5DBC4E7FBF797F900231B68FFDE50
:1052400000235B68FFDE00BFA86F011040720110F1
:1052500020720110647201102DE9F0474FF4807044
:1052600009F04EFD8046002002270126044605462F
:10527000C14614F0020F04F0080304F0100204F019
:10528000200E04F0400104F0800C2CD104F0040A3C
:1052900093B3F1B16AB1012822D089F800700134CA
:1052A000B4F5807F09F1010910D0204611F0A0FD6E
:1052B000DFE7BAF1000FEED0012811D00134B4F5C8
:1052C000807F89F8005009F10109EED14046BDE820
:1052D000F087002A52D014F0290FDCD00128EDD13C
:1052E00089F80060DBE7E3B10029D4D1002AD2D1EC
:1052F000BCF1000FE0D1CEE714F001031CD000296F
:10530000DAD1BAF1000F31D0002AD5D114F0E00F74
:10531000D2D14FF0010C0128E2D053EA0C03CDD1D9
:10532000BBE7E9B9BEF1000FC6D1002AB3D1BCF189
:10533000000FC1D16346EEE70029ABD1BEF1000FEB
:1053400011D1002AA7D1BCF1000F27D1BAF1000F6B
:10535000B2D10128C4D00223012409F8013BA4E7FB
:10536000002AA9D097E7BAF1000FA5D1002AA3D14E
:10537000BCF1000F16D11BB36346C7E7BCF1000FA9
:1053800097D0BAF1000F97D114F0290F94D10128CA
:10539000A6D00023812409F8013B86E7BAF1000F6B
:1053A0008AD1F4E714F0290F04D014F0050F83D04C
:1053B0000123ABE7012893D0812409F8012B74E77E
:1053C00001288DD0212409F8013B6EE72DE9F04139
:1053D00082B002AB03E90600B1F1010C0A46019B61
:1053E0002FD401688C4535DB02F1010E8E4541DA80
:1053F0005F1E3FD44668BE42344600F3C980BCF10C
:10540000000F6EDB8C4550DB714503DD002BA8BF20
:10541000466852DA614557DD5F1C5FD44668BE427C
:10542000344600F3D2808A4231DB714505DD013319
:1054300003D44468A342C0F2D180002002B0BDE88A
:10544000F081002900F0DD80511CF6D14FF0000EF4
:105450000168CBE75F1E3AD44668B74234464DDB5D
:105460008A42C1DABE42344600F3898002F1010E5D
:105470008E45C0DBBCF1000FC4DA714539DD002B6D
:1054800080F2BD80002AD0D15F1CD6D44668BE42CF
:105490003446CADD856807FB0156B65C002EC4D0D1
:1054A0003B46944633E08E45ACDA002BB2DB4668CF
:1054B000B342344678DB8E45ACDAB34234467BDB0C
:1054C000614501DD5F1CAAE78A42AEDADCE78A4269
:1054D00002F1010EE7DB8E45CCDB93E78A42ACDBC1
:1054E000A3E7714505DDB342344665DBBCF1000F2F
:1054F00090DA002A99D10029C6DC96E7856801FB7D
:10550000075E1EF80CE0BEF1000FA9D03B46012952
:1055100019D10020404A02F1400611681CEB010F2E
:1055200007D15168591804D4A14202DA695C01B16B
:1055300001300832B242F0D10228D4BF002001204D
:1055400002B0BDE8F0810020DFF8CCE00EF14007AA
:10555000DEF800201CEB02020CD48A420ADADEF8E4
:1055600004609E1906D4A64204DA01FB0656B25C1A
:1055700002B101300EF1080EBE45E9D1DCE78568C5
:1055800007FB015E1EF802E0BEF1000F88D16DE757
:10559000856807FB015818F80E80B8F1000F3FF43A
:1055A0002EAF3B46F446B2E7856801FB035717F878
:1055B0000C70002FABD17EE7856801FB035616F80F
:1055C0000E60002E92D0F446A1E7856807FB0158D3
:1055D00018F80C80B8F1000F98D124E7856801FB1A
:1055E000035212F80E0000283FF428AFF4468EE76D
:1055F00001290EDD4FF0010E002B7FF445AF466808
:1056000071E7016800297FF7EFAE5F1EF0D44668AE
:1056100028E74FF0010E2DE7248501102DE9F04F0A
:105620000D46A3B08146FFF717FE2E68D5F804A0FB
:10563000059006FB0AF401212046029609F072FB50
:10564000002C149040F34681034601212046CDE909
:105650001E6A209309F066FB83460AF1FF33012B93
:10566000159314DD029B022B11DD0127DDF850801C
:10567000DC199E1EA96808EB0400214432460CF098
:105680007BFB029B01371C44159B9F42F2D1029B7E
:10569000CDE91AB9A3F103081A24C1465A000BF147
:1056A000FF3304920E93CDF860A00023029A4FF0CE
:1056B000020893460F93531E0C9319941899C8F13E
:1056C00002064B1F434423F0010333440B934C4623
:1056D00000220B46C8F10307CDF858801297CDF889
:1056E0005C90139615991298814240F3C6800299F6
:1056F00024F00108ABEB01050499D9466818111D87
:10570000039088440146501C099014980A92104452
:105710001A46CDE9104B4B468B469146DDF84CA01E
:105720000D900AF10102099906920C9A8A4240F3FF
:10573000A8800D9ACDE907B30BEB02071544D346B9
:105740009E180AF10202CA4600920E9A0A991A4459
:105750008C1C019296F80190B9F1000F2AD0019BA0
:105760001A5D3ABBD345317853DB029B9C42009BC8
:1057700041DA5345C0F289800022C900B078D34590
:1057800041EA001142EA01024DDB059B9A5C022AC4
:105790000BD0012A2AD1069B621E1C921D931CAAC3
:1057A0001EA806CAFFF712FE00B34FF00003CDF8A3
:1057B0003C9073700234A04506F1020605F1020523
:1057C00007F10207C6D1D146089BDA46DDF81CB0C6
:1057D000049A039D134493440B9A524549D02A4698
:1057E0000499DDF800A00A4403929AE74FF0010201
:1057F000019B1A55DEE7534538DB0022C900D3452B
:1058000042EA0102C1DA6878297841EA40010A4394
:10581000BBE76A78002AA8D0009B53450CDB029BAB
:10582000A342A9DCE9E7A978687842EA81022978ED
:1058300041EA40010A43A8E77878029BA0B199B1F8
:105840009C4213DAB2780846002AB3D1BA78D20162
:1058500097F800C0029B42EA4C129C424FEAC101F9
:1058600042EA80128ADBCAE79C42EFDB00227878AA
:10587000EEE74B46DDE9104B0A9A013C3AB90122AA
:1058800030E70AF102020092A2E77878DEE7029B95
:10589000DDE91689B8F1010F9B4401D090460DE770
:1058A000199C013C03D00F9B002B7FF4FEAE0598A2
:1058B000DDE91AB9DDF860A009F05CFA149809F086
:1058C00059FA4846029BC9F808B0C9E9003A23B022
:1058D000BDE8F08F029B2046CDE91E3A149B209331
:1058E00009F00EFA8346B8E62DE9F04F03698246C7
:1058F000002BC8BF4FF0000883B005DC56E108F16B
:105900000108984580F2DE80DAF80C2052F8282051
:10591000D1680229F3D19268D2E90015CC68AC4273
:10592000EDD063686A689A4203DDEB68E5681C465F
:105930005B68002B0DDDA269E668002A40F0228139
:10594000013B63607368013B7360A368B360636885
:1059500073606B68002B70DD0027A9463E46CDE9D9
:10596000008A29E0D4E90131994200F0E180E5683C
:10597000D9F818202068591C4FEAC30C616000EB6D
:10598000C303002A00F0C480D9F80CE0DEE900E28D
:10599000013A921B0EEBC20B5EF832E0DBF80420FA
:1059A00040F80CE05A60A3680136C5E90113D9F844
:1059B00004300837B3423DDDA369002BD2D0D4F8C0
:1059C0000CB0BBF1000F00F0AC80DBE901318B4281
:1059D00000F0AF80DBF80C50DBE900A8B8F1000F55
:1059E00006DD51464FEAC8020AF108000BF038FC08
:1059F000D9F81820002A00F0B580D9F80C00D0E9B9
:105A00000002013A921B00EBC20C50F83200DCF8A5
:105A10000420CAE90002DBF8082008F10103CBF8F2
:105A20000430C5E90132D9F804300136B34207F138
:105A30000807C1DCDDE9008A4D466E696369F768D5
:105A40009E421FD06661E468206986421AD0002811
:105A500000F09680002321462361FEF721FAF768C3
:105A60002661002F40F3A880B2680023043A02E0C8
:105A7000BB4200F0A18052F8041F01338C42F7D1E1
:105A8000E3685E61286940B1002329462B61FEF777
:105A900007FA0022EB682A615A616B695BB1002644
:105AA000EC6820696E6130B121462661FEF7F8F995
:105AB000E36826615E61DAF8103008F10108984564
:105AC000FFF622AF002B71DD00263446DAF80C20F9
:105AD00052F82450701CE96800290BDD01349C4207
